{
  "contractName": "Teleportor",
  "abi": [
    {
      "constant": true,
      "inputs": [],
      "name": "closed",
      "outputs": [
        {
          "name": "",
          "type": "bool"
        }
      ],
      "payable": false,
      "stateMutability": "view",
      "type": "function"
    },
    {
      "constant": true,
      "inputs": [],
      "name": "erc20Contract",
      "outputs": [
        {
          "name": "",
          "type": "address"
        }
      ],
      "payable": false,
      "stateMutability": "view",
      "type": "function"
    },
    {
      "constant": true,
      "inputs": [],
      "name": "minimumAmount",
      "outputs": [
        {
          "name": "",
          "type": "uint256"
        }
      ],
      "payable": false,
      "stateMutability": "view",
      "type": "function"
    },
    {
      "inputs": [
        {
          "name": "_erc20Contract",
          "type": "address"
        },
        {
          "name": "_minimumAmount",
          "type": "uint256"
        }
      ],
      "payable": false,
      "stateMutability": "nonpayable",
      "type": "constructor"
    },
    {
      "anonymous": false,
      "inputs": [],
      "name": "Opened",
      "type": "event"
    },
    {
      "anonymous": false,
      "inputs": [
        {
          "indexed": false,
          "name": "amount",
          "type": "uint256"
        },
        {
          "indexed": false,
          "name": "note",
          "type": "string"
        }
      ],
      "name": "Teleport",
      "type": "event"
    },
    {
      "anonymous": false,
      "inputs": [],
      "name": "Closed",
      "type": "event"
    },
    {
      "constant": false,
      "inputs": [],
      "name": "close",
      "outputs": [],
      "payable": false,
      "stateMutability": "nonpayable",
      "type": "function"
    },
    {
      "constant": false,
      "inputs": [
        {
          "name": "note",
          "type": "string"
        }
      ],
      "name": "teleport",
      "outputs": [],
      "payable": false,
      "stateMutability": "nonpayable",
      "type": "function"
    }
  ],
  "bytecode": "0x608060405260008060006101000a81548160ff02191690831515021790555034801561002a57600080fd5b50604051604080610a958339810180604052604081101561004a57600080fd5b81019080805190602001909291908051906020019092919050505081600060016101000a81548173ffffffffffffffffffffffffffffffffffffffff021916908373ffffffffffffffffffffffffffffffffffffffff160217905550806001819055507fd1dcd00534373f20882b79e6ab6875a5c358c5bd576448757ed50e63069ab51860405160405180910390a150506109ab806100ea6000396000f3fe60806040526004361061006d576000357c0100000000000000000000000000000000000000000000000000000000900463ffffffff16806343d726d614610072578063597e1fb5146100895780637125493b146100b8578063a8f6c91314610180578063bb0c8298146101d7575b600080fd5b34801561007e57600080fd5b50610087610202565b005b34801561009557600080fd5b5061009e6102f4565b604051808215151515815260200191505060405180910390f35b3480156100c457600080fd5b5061017e600480360360208110156100db57600080fd5b81019080803590602001906401000000008111156100f857600080fd5b82018360208201111561010a57600080fd5b8035906020019184600183028401116401000000008311171561012c57600080fd5b91908080601f016020809104026020016040519081016040528093929190818152602001838380828437600081840152601f19601f820116905080830192505050505050509192919290505050610306565b005b34801561018c57600080fd5b506101956103ba565b604051808273ffffffffffffffffffffffffffffffffffffffff1673ffffffffffffffffffffffffffffffffffffffff16815260200191505060405180910390f35b3480156101e357600080fd5b506101ec6103e0565b6040518082815260200191505060405180910390f35b6000809054906101000a900460ff161515156102ac576040517f08c379a00000000000000000000000000000000000000000000000000000000081526004018080602001828103825260258152602001807f546869732054656c65706f72746f7220636f6e7472616374206861732065787081526020017f697265642e00000000000000000000000000000000000000000000000000000081525060400191505060405180910390fd5b60016000806101000a81548160ff0219169083151502179055507f1cdde67b72a90f19919ac732a437ac2f7a10fc128d28c2a6e525d89ce5cd9d3a60405160405180910390a1565b6000809054906101000a900460ff1681565b60006103106103e6565b90507f57d19c46e6359f529322c86abee928fb16dfe6ba7d23244916c6df7312b32d9c81836040518083815260200180602001828103825283818151815260200191508051906020019080838360005b8381101561037b578082015181840152602081019050610360565b50505050905090810190601f1680156103a85780820380516001836020036101000a031916815260200191505b50935050505060405180910390a15050565b600060019054906101000a900473ffffffffffffffffffffffffffffffffffffffff1681565b60015481565b60008060009054906101000a900460ff1615151561046c576040517f08c379a00000000000000000000000000000000000000000000000000000000081526004018080602001828103825260118152602001807f54656c65706f72746f7220636c6f73656400000000000000000000000000000081525060200191505060405180910390fd5b60008060019054906101000a900473ffffffffffffffffffffffffffffffffffffffff1673ffffffffffffffffffffffffffffffffffffffff166370a08231336040518263ffffffff167c0100000000000000000000000000000000000000000000000000000000028152600401808273ffffffffffffffffffffffffffffffffffffffff1673ffffffffffffffffffffffffffffffffffffffff16815260200191505060206040518083038186803b15801561052857600080fd5b505afa15801561053c573d6000803e3d6000fd5b505050506040513d602081101561055257600080fd5b8101908080519060200190929190505050905060008060019054906101000a900473ffffffffffffffffffffffffffffffffffffffff1673ffffffffffffffffffffffffffffffffffffffff1663dd62ed3e33306040518363ffffffff167c0100000000000000000000000000000000000000000000000000000000028152600401808373ffffffffffffffffffffffffffffffffffffffff1673ffffffffffffffffffffffffffffffffffffffff1681526020018273ffffffffffffffffffffffffffffffffffffffff1673ffffffffffffffffffffffffffffffffffffffff1681526020019250505060206040518083038186803b15801561065557600080fd5b505afa158015610669573d6000803e3d6000fd5b505050506040513d602081101561067f57600080fd5b81019080805190602001909291905050509050600154811015151561070c576040517f08c379a00000000000000000000000000000000000000000000000000000000081526004018080602001828103825260188152602001807f6c657373207468616e206d696e696d756d20616d6f756e74000000000000000081525060200191505060405180910390fd5b80821415156107a9576040517f08c379a00000000000000000000000000000000000000000000000000000000081526004018080602001828103825260278152602001807f54656c65706f72746f72206d757374206174747261637420616c6c20796f757281526020017f20746f6b656e730000000000000000000000000000000000000000000000000081525060400191505060405180910390fd5b600060019054906101000a900473ffffffffffffffffffffffffffffffffffffffff1673ffffffffffffffffffffffffffffffffffffffff166323b872dd3330856040518463ffffffff167c0100000000000000000000000000000000000000000000000000000000028152600401808473ffffffffffffffffffffffffffffffffffffffff1673ffffffffffffffffffffffffffffffffffffffff1681526020018373ffffffffffffffffffffffffffffffffffffffff1673ffffffffffffffffffffffffffffffffffffffff1681526020018281526020019350505050602060405180830381600087803b1580156108a257600080fd5b505af11580156108b6573d6000803e3d6000fd5b505050506040513d60208110156108cc57600080fd5b81019080805190602001909291905050501515610977576040517f08c379a00000000000000000000000000000000000000000000000000000000081526004018080602001828103825260248152602001807f54656c65706f72746f722063616e2774206174747261637420796f757220746f81526020017f6b656e730000000000000000000000000000000000000000000000000000000081525060400191505060405180910390fd5b81925050509056fea165627a7a72305820519b473841b9f74db584dc92e80faf1880407d8c9e7f9ef125aa535ad851c8450029",
  "source": "pragma solidity >=0.4.22 <0.6.0;\n\nimport \"./ERC20.sol\";\n\n\n/** @title Teleportor \n * \n * @dev Implementation of the Teleportor contract.\n * It deadlocks ERC20 tockens and emit events on success.\n */\ncontract Teleportor {\n    event Opened();\n    event Teleport(uint amount, string note);\n    event Closed();\n\n    bool public closed = false;\n    ERC20 public erc20Contract;\n    uint public minimumAmount;\n\n    /** @dev Construction of the ETH Teleportor contract.\n     * @param _erc20Contract The address of the ERC20 contract to attract tockens from.\n     * @param _minimumAmount the smallest amount Teleportor can attract.\n     */\n    constructor(address _erc20Contract, uint _minimumAmount) public {\n        erc20Contract = ERC20(_erc20Contract);\n        minimumAmount = _minimumAmount;\n        emit Opened();\n    }\n\n    /** @dev It closes the Teleportor\n     */\n    function close() public {\n        require(!closed, \"This Teleportor contract has expired.\");\n        closed = true;\n        emit Closed();\n    }\n\n    /** @dev teleport attracts tokens and emit Teleport event\n     * @param note Teleport event note.\n     */\n    function teleport(string memory note) public {\n        uint amount = attract();\n        emit Teleport(amount, note);\n    }\n\n    function attract() private returns (uint amount){\n        require(!closed, \"Teleportor closed\");\n        uint balance = erc20Contract.balanceOf(msg.sender);\n        uint allowed = erc20Contract.allowance(msg.sender, address(this));\n        require(allowed >= minimumAmount, \"less than minimum amount\");\n        require(balance == allowed, \"Teleportor must attract all your tokens\");\n        require(erc20Contract.transferFrom(msg.sender, address(this), balance), \"Teleportor can't attract your tokens\");\n        return balance;\n    }\n}\n",
  "sourcePath": "/home/i0026/Projects/eos-eth/eos-eth/eth/contracts/Teleportor.sol",
  "compiler": {
    "name": "solc",
    "version": "0.5.0+commit.1d4f565a.Emscripten.clang"
  },
  "schemaVersion": "3.0.2",
  "updatedAt": "2019-04-01T02:24:43.526Z",
  "devdoc": {
    "details": "Implementation of the Teleportor contract. It deadlocks ERC20 tockens and emit events on success.",
    "methods": {
      "close()": {
        "details": "It closes the Teleportor"
      },
      "constructor": {
        "details": "Construction of the ETH Teleportor contract.",
        "params": {
          "_erc20Contract": "The address of the ERC20 contract to attract tockens from.",
          "_minimumAmount": "the smallest amount Teleportor can attract."
        }
      },
      "teleport(string)": {
        "details": "teleport attracts tokens and emit Teleport event",
        "params": {
          "note": "Teleport event note."
        }
      }
    },
    "title": "Teleportor  "
  },
  "userdoc": {
    "methods": {}
  }
}