{
  "contractName": "TeleportorOperator",
  "abi": [
    {
      "constant": false,
      "inputs": [],
      "name": "close",
      "outputs": [],
      "payable": false,
      "stateMutability": "nonpayable",
      "type": "function",
      "signature": "0x43d726d6"
    },
    {
      "constant": true,
      "inputs": [],
      "name": "closed",
      "outputs": [
        {
          "name": "",
          "type": "bool"
        }
      ],
      "payable": false,
      "stateMutability": "view",
      "type": "function",
      "signature": "0x597e1fb5"
    },
    {
      "constant": true,
      "inputs": [],
      "name": "erc20Contract",
      "outputs": [
        {
          "name": "",
          "type": "address"
        }
      ],
      "payable": false,
      "stateMutability": "view",
      "type": "function",
      "signature": "0xa8f6c913"
    },
    {
      "constant": true,
      "inputs": [],
      "name": "minimumAmount",
      "outputs": [
        {
          "name": "",
          "type": "uint256"
        }
      ],
      "payable": false,
      "stateMutability": "view",
      "type": "function",
      "signature": "0xbb0c8298"
    },
    {
      "inputs": [
        {
          "name": "_erc20Contract",
          "type": "address"
        },
        {
          "name": "_minimumAmount",
          "type": "uint256"
        }
      ],
      "payable": false,
      "stateMutability": "nonpayable",
      "type": "constructor",
      "signature": "constructor"
    },
    {
      "anonymous": false,
      "inputs": [],
      "name": "Opened",
      "type": "event",
      "signature": "0xd1dcd00534373f20882b79e6ab6875a5c358c5bd576448757ed50e63069ab518"
    },
    {
      "anonymous": false,
      "inputs": [
        {
          "indexed": false,
          "name": "amount",
          "type": "uint256"
        },
        {
          "indexed": false,
          "name": "note",
          "type": "string"
        }
      ],
      "name": "Teleport",
      "type": "event",
      "signature": "0x57d19c46e6359f529322c86abee928fb16dfe6ba7d23244916c6df7312b32d9c"
    },
    {
      "anonymous": false,
      "inputs": [],
      "name": "Closed",
      "type": "event",
      "signature": "0x1cdde67b72a90f19919ac732a437ac2f7a10fc128d28c2a6e525d89ce5cd9d3a"
    },
    {
      "constant": true,
      "inputs": [
        {
          "name": "account",
          "type": "string"
        }
      ],
      "name": "accountIsValid",
      "outputs": [
        {
          "name": "",
          "type": "bool"
        }
      ],
      "payable": false,
      "stateMutability": "pure",
      "type": "function",
      "signature": "0x49e0f368"
    },
    {
      "constant": false,
      "inputs": [
        {
          "name": "eosAccount",
          "type": "string"
        }
      ],
      "name": "teleport",
      "outputs": [],
      "payable": false,
      "stateMutability": "nonpayable",
      "type": "function",
      "signature": "0x7125493b"
    }
  ],
  "bytecode": "0x608060405260008060006101000a81548160ff02191690831515021790555034801561002a57600080fd5b50604051604080610e4f8339810180604052604081101561004a57600080fd5b810190808051906020019092919080519060200190929190505050818181600060016101000a81548173ffffffffffffffffffffffffffffffffffffffff021916908373ffffffffffffffffffffffffffffffffffffffff160217905550806001819055507fd1dcd00534373f20882b79e6ab6875a5c358c5bd576448757ed50e63069ab51860405160405180910390a150505050610d61806100ee6000396000f3fe608060405260043610610078576000357c0100000000000000000000000000000000000000000000000000000000900463ffffffff16806343d726d61461007d57806349e0f36814610094578063597e1fb5146101745780637125493b146101a3578063a8f6c9131461026b578063bb0c8298146102c2575b600080fd5b34801561008957600080fd5b506100926102ed565b005b3480156100a057600080fd5b5061015a600480360360208110156100b757600080fd5b81019080803590602001906401000000008111156100d457600080fd5b8201836020820111156100e657600080fd5b8035906020019184600183028401116401000000008311171561010857600080fd5b91908080601f016020809104026020016040519081016040528093929190818152602001838380828437600081840152601f19601f8201169050808301925050505050505091929192905050506103df565b604051808215151515815260200191505060405180910390f35b34801561018057600080fd5b50610189610621565b604051808215151515815260200191505060405180910390f35b3480156101af57600080fd5b50610269600480360360208110156101c657600080fd5b81019080803590602001906401000000008111156101e357600080fd5b8201836020820111156101f557600080fd5b8035906020019184600183028401116401000000008311171561021757600080fd5b91908080601f016020809104026020016040519081016040528093929190818152602001838380828437600081840152601f19601f820116905080830192505050505050509192919290505050610633565b005b34801561027757600080fd5b506102806106bc565b604051808273ffffffffffffffffffffffffffffffffffffffff1673ffffffffffffffffffffffffffffffffffffffff16815260200191505060405180910390f35b3480156102ce57600080fd5b506102d76106e2565b6040518082815260200191505060405180910390f35b6000809054906101000a900460ff16151515610397576040517f08c379a00000000000000000000000000000000000000000000000000000000081526004018080602001828103825260258152602001807f546869732054656c65706f72746f7220636f6e7472616374206861732065787081526020017f697265642e00000000000000000000000000000000000000000000000000000081525060400191505060405180910390fd5b60016000806101000a81548160ff0219169083151502179055507f1cdde67b72a90f19919ac732a437ac2f7a10fc128d28c2a6e525d89ce5cd9d3a60405160405180910390a1565b60006060829050600c81511415156103fb57600091505061061c565b60008090505b8151811015610615576000828281518110151561041a57fe5b9060200101517f010000000000000000000000000000000000000000000000000000000000000090047f010000000000000000000000000000000000000000000000000000000000000002905060617f010000000000000000000000000000000000000000000000000000000000000002817effffffffffffffffffffffffffffffffffffffffffffffffffffffffffffff1916101580156105015750607a7f010000000000000000000000000000000000000000000000000000000000000002817effffffffffffffffffffffffffffffffffffffffffffffffffffffffffffff191611155b1580156105a5575060317f010000000000000000000000000000000000000000000000000000000000000002817effffffffffffffffffffffffffffffffffffffffffffffffffffffffffffff1916101580156105a3575060357f010000000000000000000000000000000000000000000000000000000000000002817effffffffffffffffffffffffffffffffffffffffffffffffffffffffffffff191611155b155b80156105f65750602e7f010000000000000000000000000000000000000000000000000000000000000002817effffffffffffffffffffffffffffffffffffffffffffffffffffffffffffff191614155b15610607576000935050505061061c565b508080600101915050610401565b5060019150505b919050565b6000809054906101000a900460ff1681565b61063c816103df565b15156106b0576040517f08c379a00000000000000000000000000000000000000000000000000000000081526004018080602001828103825260138152602001807f696e76616c696420454f53206163636f756e740000000000000000000000000081525060200191505060405180910390fd5b6106b9816106e8565b50565b600060019054906101000a900473ffffffffffffffffffffffffffffffffffffffff1681565b60015481565b60006106f261079c565b90507f57d19c46e6359f529322c86abee928fb16dfe6ba7d23244916c6df7312b32d9c81836040518083815260200180602001828103825283818151815260200191508051906020019080838360005b8381101561075d578082015181840152602081019050610742565b50505050905090810190601f16801561078a5780820380516001836020036101000a031916815260200191505b50935050505060405180910390a15050565b60008060009054906101000a900460ff16151515610822576040517f08c379a00000000000000000000000000000000000000000000000000000000081526004018080602001828103825260118152602001807f54656c65706f72746f7220636c6f73656400000000000000000000000000000081525060200191505060405180910390fd5b60008060019054906101000a900473ffffffffffffffffffffffffffffffffffffffff1673ffffffffffffffffffffffffffffffffffffffff166370a08231336040518263ffffffff167c0100000000000000000000000000000000000000000000000000000000028152600401808273ffffffffffffffffffffffffffffffffffffffff1673ffffffffffffffffffffffffffffffffffffffff16815260200191505060206040518083038186803b1580156108de57600080fd5b505afa1580156108f2573d6000803e3d6000fd5b505050506040513d602081101561090857600080fd5b8101908080519060200190929190505050905060008060019054906101000a900473ffffffffffffffffffffffffffffffffffffffff1673ffffffffffffffffffffffffffffffffffffffff1663dd62ed3e33306040518363ffffffff167c0100000000000000000000000000000000000000000000000000000000028152600401808373ffffffffffffffffffffffffffffffffffffffff1673ffffffffffffffffffffffffffffffffffffffff1681526020018273ffffffffffffffffffffffffffffffffffffffff1673ffffffffffffffffffffffffffffffffffffffff1681526020019250505060206040518083038186803b158015610a0b57600080fd5b505afa158015610a1f573d6000803e3d6000fd5b505050506040513d6020811015610a3557600080fd5b810190808051906020019092919050505090506001548110151515610ac2576040517f08c379a00000000000000000000000000000000000000000000000000000000081526004018080602001828103825260188152602001807f6c657373207468616e206d696e696d756d20616d6f756e74000000000000000081525060200191505060405180910390fd5b8082141515610b5f576040517f08c379a00000000000000000000000000000000000000000000000000000000081526004018080602001828103825260278152602001807f54656c65706f72746f72206d757374206174747261637420616c6c20796f757281526020017f20746f6b656e730000000000000000000000000000000000000000000000000081525060400191505060405180910390fd5b600060019054906101000a900473ffffffffffffffffffffffffffffffffffffffff1673ffffffffffffffffffffffffffffffffffffffff166323b872dd3330856040518463ffffffff167c0100000000000000000000000000000000000000000000000000000000028152600401808473ffffffffffffffffffffffffffffffffffffffff1673ffffffffffffffffffffffffffffffffffffffff1681526020018373ffffffffffffffffffffffffffffffffffffffff1673ffffffffffffffffffffffffffffffffffffffff1681526020018281526020019350505050602060405180830381600087803b158015610c5857600080fd5b505af1158015610c6c573d6000803e3d6000fd5b505050506040513d6020811015610c8257600080fd5b81019080805190602001909291905050501515610d2d576040517f08c379a00000000000000000000000000000000000000000000000000000000081526004018080602001828103825260248152602001807f54656c65706f72746f722063616e2774206174747261637420796f757220746f81526020017f6b656e730000000000000000000000000000000000000000000000000000000081525060400191505060405180910390fd5b81925050509056fea165627a7a723058209cd14d7f24053d3a05d19b74d0f1ba90fff96c8c1ff1d75ba6e55c6b4998a47f0029",
  "source": "pragma solidity >=0.4.22 <0.6.0;\n\nimport \"./Teleportor.sol\";\n\ncontract TeleportorOperator is Teleportor {\n\n    function accountIsValid(string memory account) public pure returns (bool){\n        bytes memory b = bytes(account);    \n        if (b.length != 12) return false;\n\n        for(uint i = 0; i<b.length; i++){\n            bytes1 char = b[i];\n\n            // a-z && 1-5 && .\n            if(!(char >= 0x61 && char <= 0x7A) && \n               !(char >= 0x31 && char <= 0x35) && \n               !(char == 0x2E)) \n            return  false;\n        }\n        \n        return true;\n    }\n\n    constructor(address _erc20Contract, uint _minimumAmount) public \n    Teleportor(_erc20Contract, _minimumAmount)\n    {\n    }\n\n    /** @dev It deadlocks your tokens and emit an event with amount and EOS account.\n     */\n    function teleport(string memory eosAccount) public {\n        require(accountIsValid(eosAccount), \"invalid EOS account\");\n        super.teleport(eosAccount);\n    }\n}\n",
  "sourcePath": "/home/i0026/Projects/eos-eth/eos-eth/eth/contracts/TeleportorOperator.sol",
  "compiler": {
    "name": "solc",
    "version": "0.5.0+commit.1d4f565a.Emscripten.clang"
  },
  "schemaVersion": "3.0.2",
  "updatedAt": "2019-04-01T02:32:15.626Z",
  "devdoc": {
    "methods": {
      "close()": {
        "details": "It closes the Teleportor"
      },
      "teleport(string)": {
        "details": "It deadlocks your tokens and emit an event with amount and EOS account."
      }
    }
  },
  "userdoc": {
    "methods": {}
  }
}